:100000000C9434000C94D4010C9451000C945100C5
:100010000C9451000C9451000C9451000C94D2009B
:100020000C9451000C9451000C9451000C9451000C
:100030000C9451000C9451000C9484000C945100C9
:100040000C9451000C9451000C9451000C945100EC
:100050000C9451000C9451000C9451000C945100DC
:100060000C9451000C94510011241FBECFEFD8E026
:10007000DEBFCDBF11E0A0E0B1E0EAE9F5E002C0EB
:1000800005900D92A432B107D9F721E0A4E2B1E0C6
:1000900001C01D92A133B207E1F70E94FD010C944B
:1000A000CB020C9400008091250190E001968370B2
:1000B000992780932501880F991F880F991F8E5FBC
:1000C0009E4F9093010180930001089508959091AF
:1000D000240181E089278093240189E291E00E9434
:1000E000C301A9E2B1E08C912AE0622F0E947E0256
:1000F000E2E0F1E08083918311968C910E947E0270
:1001000082839383089508951F920F920FB60F92E2
:1001100011242F938F939F93EF93FF9328B181E046
:1001200090E00090260102C0880F991F0A94E2F720
:10013000922F907F892B88B980912601E091000150
:10014000F0910101E80FF11DE08190912401F0E0B0
:10015000EE5EFE4F8081892B85B98091260190E06B
:1001600001968370992780932601FF91EF919F91CB
:100170008F912F910F900FBE0F901F901895E0EB6D
:10018000F0E0808182608083E1EBF0E08081876035
:1001900080838DE48093B300E0E7F0E080818260AB
:1001A000808308951F920F920FB60F9211248F93A0
:1001B0009F9380912D0190912E01009729F0019736
:1001C00090932E0180932D0180912B0190912C0111
:1001D000009729F0019790932C0180932B01809137
:1001E000270190912801009729F001979093280109
:1001F000809327019F918F910F900FBE0F901F90BA
:100200001895CF93DF93EC01E881F98190818A8181
:1002100098238885811115C091111EC081E08887BF
:10022000EC81FD81309709F0099581E089878B8108
:1002300024E6829FC001112490932E0180932D010A
:100240001AC0992349F08F5F8887811114C01092DA
:100250002E0110922D010EC08985882361F08091B6
:100260002D0190912E01892B31F4EE81FF81309781
:1002700009F009951986DF91CF9108959C0140E01E
:1002800050E060E47FE180E090E00E948A02822FEB
:10029000203130F030E02051310935952795822FFB
:1002A0008093B800089584EA8093BC008091BC00DC
:1002B00087FFFCCF089584E98093BC008091BC0047
:1002C00084FDFCCF08958093BB0084E88093BC003C
:1002D0008091BC0087FFFCCF089520E4829FC0017D
:1002E000112484688093BC008091BC0087FFFCCF00
:1002F0008091BB000895CF930E94530180ED0E942E
:10030000630180E00E9463010E94530181ED0E941D
:10031000630180E00E946D01C82F0E945B018C2F59
:10032000CF9108959093300180932F010895CF933A
:1003300084E690E00E943E0152985A9AE9E6F0E085
:10034000808183608083E89A0E94530180ED0E943F
:10035000630187E00E94630180E10E9463010E94C3
:100360005B010E947B01C82F0E94530180ED0E9417
:10037000630180E00E9463018C2F8F770E946301EC
:10038000CF910C945B01CF93DF93EC010E947B0132
:10039000982F92959F708F702AE0929F800D112464
:1003A0008983DF91CF9108951F920F920FB60F921C
:1003B00011242F933F934F935F936F937F938F936A
:1003C0009F93AF93BF93EF93FF93E0912F01F09131
:1003D0003001309709F00995FF91EF91BF91AF91EE
:1003E0009F918F917F916F915F914F913F912F914D
:1003F0000F900FBE0F901F901895CF93DF93CDB73E
:10040000DEB76E970FB6F894DEBF0FBECDBF84B5D2
:10041000826084BD85B5856085BD80E287BD8091A1
:100420006E00826080936E000E94BF009AE08E0191
:100430000B5E1F4FF801492F11924A95E9F729E207
:1004400030E03E8B2D8B81E08F8B82E0888F43E5FF
:1004500050E05A8F498F5C8F4B8F7E015BE0E50E39
:10046000F11CF701492F11924A95E9F73C872B8738
:1004700048E04D878E8743E850E0588B4F875A8B72
:10048000498BFE0131966F0111929A95E9F73A83F3
:10049000298390E19B838C8386E690E09E838D8305
:1004A00098878F835098589A53985B9A54985C9A7F
:1004B0000E94970187E690E00E9492018AB1806EC7
:1004C0008AB98FEF84B987B18F6087B9789484E651
:1004D000A82EB12CC8010E940101C7010E94010190
:1004E000C6010E94010180912B0190912C01892B62
:1004F00089F7B0922C01A0922B01ECCF991B79E0E7
:1005000004C0991F961708F0961B881F7A95C9F7A3
:1005100080950895052E97FB1EF400940E94A10279
:1005200057FD07D00E94A90207FC03D04EF40C949B
:10053000A10250954095309521953F4F4F4F5F4F09
:10054000089590958095709561957F4F8F4F9F4F3F
:100550000895A1E21A2EAA1BBB1BFD010DC0AA1F04
:10056000BB1FEE1FFF1FA217B307E407F50720F01C
:10057000A21BB30BE40BF50B661F771F881F991F97
:100580001A9469F760957095809590959B01AC01E0
:0A059000BD01CF010895F894FFCFDC
:10059A000201010200000A0111110A0211100A03E4
:1005AA00111020BA4818921404B800108006640A80
:0405BA0044C4DEFE59
:00000001FF
