:100000000C9434000C9451000C9451000C94510049
:100010000C9451000C9451000C9451000C94AF00BE
:100020000C9451000C9451000C9451000C9451000C
:100030000C9451000C9451000C946A000C945100E3
:100040000C9451000C9451000C9451000C945100EC
:100050000C9451000C9451000C9451000C945100DC
:100060000C9451000C94510011241FBECFEFD8E026
:10007000DEBFCDBF11E0A0E0B1E0EEECF2E002C0E7
:1000800005900D92A031B107D9F721E0A0E1B1E0D0
:1000900001C01D92A432B207E1F70E9405010C9441
:1000A00065010C9400008BB1806E8BB908955F9848
:1000B0005E985D980895392F2AE0622F0E945901B9
:1000C000E1E1F1E080839183832F0E9459018283D3
:1000D000938308951F920F920FB60F9211248F935E
:1000E0009F93EF93FF9381E090E00090150102C091
:1000F000880F991F0A94E2F788B9E0911501F0E0A2
:10010000EF5EFE4FE08190911001F0E0E050FF4F74
:100110008081892B85B98091150190E001968370CB
:10012000992780931501FF91EF919F918F910F90E7
:100130000FBE0F901F901895E0EBF0E08081826079
:100140008083E1EBF0E08081876080838DE48093A1
:10015000B300E0E7F0E080818260808308951F9221
:100160000F920FB60F9211248F939F9380912201CB
:1001700090912301009729F0019790932301809398
:1001800022019F918F910F900FBE0F901F90189595
:10019000CF93DF93EC01E881F98190818A819823E4
:1001A0008885811115C091111EC081E08887EC817E
:1001B000FD81309709F0099581E089878B8124E6DC
:1001C000829FC001112490932301809322011AC0C1
:1001D000992349F08F5F8887811114C01092230101
:1001E000109222010EC08985882361F0809122013E
:1001F00090912301892B31F4EE81FF81309709F032
:1002000009951986DF91CF91089584B5826084BDE8
:1002100085B5856085BD80E287BD80916E00826076
:1002200080936E000E949C0089E290E090931701F9
:100230008093160184E08093180183E08093190174
:1002400083E590E090931B0180931A0187E590E08D
:1002500090931D0180931C018AB1806E8AB95298D7
:10026000539854988BB18C618BB952985A9A8FEFEE
:1002700084B987B18F6087B98CE08093200187E2D1
:100280008093210178948091100190E00196817013
:1002900099278093100186E191E00E94C8002FEF1A
:1002A00089E698E1215080409040E1F700C00000CD
:1002B000EACF991B79E004C0991F961708F0961BA6
:0E02C000881F7A95C9F780950895F894FFCFAE
:1002CE0020BA4818921404B800108006640A44C478
:00000001FF
