:100000000C9434000C9451000C9451000C94510049
:100010000C9451000C9451000C9451000C9451001C
:100020000C9451000C9451000C9451000C9451000C
:100030000C9451000C9451000C9462000C945100EB
:100040000C9451000C9451000C9451000C945100EC
:100050000C9451000C9451000C9451000C945100DC
:100060000C9451000C94510011241FBECFEFD8E026
:10007000DEBFCDBF11E0A0E0B1E0E0EEF1E002C0F4
:1000800005900D92A031B107D9F721E0A0E1B1E0D0
:1000900001C01D92A831B207E1F70E94A3000C94A1
:1000A000EE000C940000392F2AE0622F0E94E2003B
:1000B000E1E1F1E080839183832F0E94E20082835B
:1000C000938308951F920F920FB60F9211242F93CE
:1000D0003F938F939F93EF93FF9381E090E0009085
:1000E000150102C0880F991F0A94E2F788B9E091C0
:1000F0001501F0E0EF5EFE4FE08190911001F0E01D
:10010000E050FF4F8081892B85B92BB199B19C714B
:1001100038E0939FC0011124922F9F71892B8BB9D6
:100120008091150190E001968370992780931501C5
:10013000FF91EF919F918F913F912F910F900FBE63
:100140000F901F90189584B5826084BD85B5856039
:1001500085BD80E287BD80916E00826080936E00D5
:100160008AB1806E8AB95298539854988BB18C6139
:100170008BB98FEF84B987B18F6087B98CE080939A
:10018000160187E28093170178948091160190916F
:1001900017010E945300809117018F5F8093170110
:1001A0008091100190E00196817099278093100151
:1001B0002FEF89E698E1215080409040E1F700C0A0
:1001C0000000E3CF991B79E004C0991F961708F04F
:1001D000961B881F7A95C9F780950895F894FFCFEC
:1001E00020BA4818921404B800108006640A44C467
:00000001FF
