:100000000C9434000C9451000C9451000C94510049
:100010000C9451000C9451000C9451000C94A700C6
:100020000C9451000C9451000C9451000C9451000C
:100030000C9451000C9451000C9462000C945100EB
:100040000C9451000C9451000C9451000C945100EC
:100050000C9451000C9451000C9451000C945100DC
:100060000C9451000C94510011241FBECFEFD8E026
:10007000DEBFCDBF11E0A0E0B1E0ECE9F2E002C0EC
:1000800005900D92A031B107D9F721E0A0E1B1E0D0
:1000900001C01D92AA31B207E1F70E94FD000C9445
:1000A0004C010C940000392F2AE0622F0E9440017D
:1000B000E1E1F1E080839183832F0E9440018283FC
:1000C000938308951F920F920FB60F9211248F936E
:1000D0009F93EF93FF9381E090E00090150102C0A1
:1000E000880F991F0A94E2F788B9E0911501F0E0B2
:1000F000EF5EFE4FE08190911001F0E0E050FF4F85
:100100008081892B85B98091150190E001968370DB
:10011000992780931501FF91EF919F918F910F90F7
:100120000FBE0F901F901895E0EBF0E08081826089
:100130008083E1EBF0E08081876080838DE48093B1
:10014000B300E0E7F0E080818260808308951F9231
:100150000F920FB60F9211248F939F9380911801E5
:1001600090911901009729F00197909319018093BC
:1001700018019F918F910F900FBE0F901F901895AF
:10018000CF93DF93EC01E881F98190818A819823F4
:100190008885811115C091111EC081E08887EC818E
:1001A000FD81309709F0099581E089878B8124E6EC
:1001B000829FC001112490931901809318011AC0E5
:1001C000992349F08F5F8887811114C0109219011B
:1001D000109218010EC08985882361F08091180162
:1001E00090911901892B31F4EE81FF81309709F04C
:1001F00009951986DF91CF91089584B5826084BDF9
:1002000085B5856085BD80E287BD80916E00826086
:1002100080936E000E9494008AB1806E8AB95298D1
:10022000539854988BB18C618BB952985A9A8FEF2E
:1002300084B987B18F6087B98CE08093160187E21B
:1002400080931701789480911601909117010E9474
:100250005300809117018F5F8093170180911001E7
:1002600090E0019681709927809310012FEF89E625
:1002700098E1215080409040E1F700C00000E3CFBA
:10028000991B79E004C0991F961708F0961B881FE8
:0C0290007A95C9F780950895F894FFCF87
:10029C0020BA4818921404B800108006640A44C4AA
:00000001FF
